{
  "_format": "hh-sol-artifact-1",
  "contractName": "MultiSendProxy",
  "sourceName": "contracts/MultiSendProxy.sol",
  "abi": [
    {
      "inputs": [
        {
          "internalType": "address",
          "name": "_multiSendContract",
          "type": "address"
        }
      ],
      "stateMutability": "nonpayable",
      "type": "constructor"
    },
    {
      "inputs": [
        {
          "internalType": "address",
          "name": "token",
          "type": "address"
        },
        {
          "internalType": "uint256",
          "name": "amount",
          "type": "uint256"
        }
      ],
      "name": "approveAndCall",
      "outputs": [],
      "stateMutability": "nonpayable",
      "type": "function"
    },
    {
      "inputs": [
        {
          "internalType": "bytes",
          "name": "transactions",
          "type": "bytes"
        }
      ],
      "name": "multiSend",
      "outputs": [],
      "stateMutability": "payable",
      "type": "function"
    },
    {
      "inputs": [],
      "name": "multiSendContract",
      "outputs": [
        {
          "internalType": "address",
          "name": "",
          "type": "address"
        }
      ],
      "stateMutability": "view",
      "type": "function"
    },
    {
      "stateMutability": "payable",
      "type": "receive"
    }
  ],
  "bytecode": "0x60a060405234801561001057600080fd5b506040516108e03803806108e0833981810160405281019061003291906100cf565b8073ffffffffffffffffffffffffffffffffffffffff1660808173ffffffffffffffffffffffffffffffffffffffff1681525050506100fc565b600080fd5b600073ffffffffffffffffffffffffffffffffffffffff82169050919050565b600061009c82610071565b9050919050565b6100ac81610091565b81146100b757600080fd5b50565b6000815190506100c9816100a3565b92915050565b6000602082840312156100e5576100e461006c565b5b60006100f3848285016100ba565b91505092915050565b6080516107bc6101246000396000818160d201528181610159015261017f01526107bc6000f3fe6080604052600436106100385760003560e01c80633177029f146100445780635be348d31461006d5780638d80ff0a146100985761003f565b3661003f57005b600080fd5b34801561005057600080fd5b5061006b6004803603810190610066919061037f565b6100b4565b005b34801561007957600080fd5b50610082610157565b60405161008f91906103ce565b60405180910390f35b6100b260048036038101906100ad919061052f565b61017b565b005b8173ffffffffffffffffffffffffffffffffffffffff1663095ea7b37f0000000000000000000000000000000000000000000000000000000000000000836040518363ffffffff1660e01b815260040161010f929190610587565b6020604051808303816000875af115801561012e573d6000803e3d6000fd5b505050506040513d601f19601f8201168201806040525081019061015291906105e8565b505050565b7f000000000000000000000000000000000000000000000000000000000000000081565b60007f000000000000000000000000000000000000000000000000000000000000000073ffffffffffffffffffffffffffffffffffffffff16826040516024016101c59190610694565b6040516020818303038152906040527f8d80ff0a000000000000000000000000000000000000000000000000000000007bffffffffffffffffffffffffffffffffffffffffffffffffffffffff19166020820180517bffffffffffffffffffffffffffffffffffffffffffffffffffffffff838183161783525050505060405161024f91906106f2565b600060405180830381855af49150503d806000811461028a576040519150601f19603f3d011682016040523d82523d6000602084013e61028f565b606091505b50509050806102d3576040517f08c379a00000000000000000000000000000000000000000000000000000000081526004016102ca90610766565b60405180910390fd5b5050565b6000604051905090565b600080fd5b600080fd5b600073ffffffffffffffffffffffffffffffffffffffff82169050919050565b6000610316826102eb565b9050919050565b6103268161030b565b811461033157600080fd5b50565b6000813590506103438161031d565b92915050565b6000819050919050565b61035c81610349565b811461036757600080fd5b50565b60008135905061037981610353565b92915050565b60008060408385031215610396576103956102e1565b5b60006103a485828601610334565b92505060206103b58582860161036a565b9150509250929050565b6103c88161030b565b82525050565b60006020820190506103e360008301846103bf565b92915050565b600080fd5b600080fd5b6000601f19601f8301169050919050565b7f4e487b7100000000000000000000000000000000000000000000000000000000600052604160045260246000fd5b61043c826103f3565b810181811067ffffffffffffffff8211171561045b5761045a610404565b5b80604052505050565b600061046e6102d7565b905061047a8282610433565b919050565b600067ffffffffffffffff82111561049a57610499610404565b5b6104a3826103f3565b9050602081019050919050565b82818337600083830152505050565b60006104d26104cd8461047f565b610464565b9050828152602081018484840111156104ee576104ed6103ee565b5b6104f98482856104b0565b509392505050565b600082601f830112610516576105156103e9565b5b81356105268482602086016104bf565b91505092915050565b600060208284031215610545576105446102e1565b5b600082013567ffffffffffffffff811115610563576105626102e6565b5b61056f84828501610501565b91505092915050565b61058181610349565b82525050565b600060408201905061059c60008301856103bf565b6105a96020830184610578565b9392505050565b60008115159050919050565b6105c5816105b0565b81146105d057600080fd5b50565b6000815190506105e2816105bc565b92915050565b6000602082840312156105fe576105fd6102e1565b5b600061060c848285016105d3565b91505092915050565b600081519050919050565b600082825260208201905092915050565b60005b8381101561064f578082015181840152602081019050610634565b60008484015250505050565b600061066682610615565b6106708185610620565b9350610680818560208601610631565b610689816103f3565b840191505092915050565b600060208201905081810360008301526106ae818461065b565b905092915050565b600081905092915050565b60006106cc82610615565b6106d681856106b6565b93506106e6818560208601610631565b80840191505092915050565b60006106fe82846106c1565b915081905092915050565b600082825260208201905092915050565b7f4d756c746953656e6420657865637574696f6e206661696c6564000000000000600082015250565b6000610750601a83610709565b915061075b8261071a565b602082019050919050565b6000602082019050818103600083015261077f81610743565b905091905056fea2646970667358221220be71c8194f1e169f2b8d2f796f32d2e3baf474aead89b2e00aa4afceea5b31c864736f6c63430008140033",
  "linkReferences": {},
  "deployedLinkReferences": {}
}